:100000000C9487000C94AF000C94AF000C94AF00DC
:100010000C94AF000C94AF000C94AF000C94AF00A4
:100020000C94AF000C94AF000C94AF000C94AF0094
:100030000C94AF000C94AF000C94AF000C94AF0084
:100040000C94BA030C94AF000C94C3020C949D0260
:100050000C94AF000C94AF000C94AF000C94AF0064
:100060000C94AD050C94AF0047095C095C095B0971
:100070005C0939095C095C095C093B095C095C099C
:100080004E09590957095C095C095C095509323068
:100090003A30323A30310046656220203420323026
:1000A0003138001F1C1F1E1F1E1F1F1E1F1E1F007A
:1000B000000000240027002A000000000023002682
:1000C00000290000000008000201000003040700EE
:1000D0000000000000000001020408102040800120
:1000E000020408102001020408102000000000256E
:1000F0000028002B00040404040404040402020287
:10010000020202030303030303004E0E3E0E1124FA
:100110001FBECFEFD8E0DEBFCDBF23E0A0E6B1E049
:1001200001C01D92AD35B207E1F711E0A0E0B1E0EA
:10013000E2EDF1E202C005900D92A036B107D9F7C9
:1001400010E0C6E8D0E004C02197FE010E94A40F91
:10015000C538D107C9F70E9435080C94DC100C94FF
:100160000000FC01538D448D252F30E0842F90E05A
:10017000821B930B541710F0CF96089501970895A2
:10018000FC01918D828D981761F0828DDF01A80F9F
:10019000B11D5D968C91928D9F5F9F73928F90E0C1
:1001A00008958FEF9FEF0895FC01918D828D981730
:1001B00031F0828DE80FF11D858D90E008958FEF6D
:1001C0009FEF0895FC01918D228D892F90E0805C36
:1001D0009F4F821B91098F739927089585E292E0C2
:1001E0000E94E20021E0892B09F420E0822F08958B
:1001F000FC01848DDF01A80FB11DA35ABF4F2C91C4
:10020000848D90E001968F739927848FA689B78992
:100210002C93A089B1898C9180648C93938D848D6B
:10022000981306C00288F389E02D80818F7D80833A
:100230000895EF92FF920F931F93CF93DF93EC01FA
:1002400081E0888F9B8D8C8D981305C0E889F98992
:10025000808185FD24C0F62E0B8D10E00F5F1F4FAF
:100260000F731127E02E8C8DE8120CC00FB607FC1F
:10027000FACFE889F989808185FFF5CFCE010E9408
:10028000F800F1CF8B8DFE01E80FF11DE35AFF4F0F
:10029000F0820B8FEA89FB898081806207C0EE893A
:1002A000FF896083E889F98980818064808381E0A7
:1002B00090E0DF91CF911F910F91FF90EF90089503
:1002C000CF93DF93EC01888D8823C9F0EA89FB89FD
:1002D000808185FD05C0A889B9898C9186FD0FC0F4
:1002E0000FB607FCF5CF808185FFF2CFA889B989C9
:1002F0008C9185FFEDCFCE010E94F800E7CFDF9112
:10030000CF91089580E090E0892B29F00E94EE00C3
:1003100081110C9400000895833081F028F481301D
:1003200099F08230A1F008958730A9F08830B9F0B3
:100330008430D1F4809180008F7D03C08091800053
:100340008F7780938000089584B58F7702C084B53D
:100350008F7D84BD08958091B0008F7703C0809118
:10036000B0008F7D8093B00008953FB7F8948091DE
:10037000B4019091B501A091B601B091B70126B535
:10038000A89B05C02F3F19F00196A11DB11D3FBFCD
:10039000BA2FA92F982F8827820F911DA11DB11D5B
:1003A000BC01CD0142E0660F771F881F991F4A9557
:1003B000D1F7089585ED8093BC008091BC0084FD49
:1003C000FCCF10920002089540918A01262F30E060
:1003D000240F311D21323105DCF42091000224303C
:1003E000C9F4FC0180E090E0861758F430918A014E
:1003F0002191DC01A859BE4FA30FB11D2C9301968A
:10040000F3CF80918A01680F60938A0180E008959C
:1004100081E0089582E008950895E091B901809106
:10042000B801E81730F4F0E0E654FE4F808190E028
:1004300008958FEF9FEF08959091B9018091B801D1
:10044000981750F4E92FF0E0E654FE4F208130E099
:100450009F5F9093B90102C02FEF3FEFC90108954C
:100460008091B80190E02091B901821B9109089513
:10047000CF92DF92EF92FF920F931F93CF93DF9370
:100480007C01262F972F8A0180910102882391F009
:10049000C62FD72F6E01C40ED51ECC15DD0571F009
:1004A0006991D701ED91FC910190F081E02DC70198
:1004B0000995F3CF642F822F0E94E401C801DF91D8
:1004C000CF911F910F91FF90EF90DF90CF90089503
:1004D000CF93DF931F92CDB7DEB7698320910102DE
:1004E0002223D1F020912402203240F021E030E09C
:1004F000FC013383228380E090E015C080910202EA
:10050000E82FF0E0ED5FFD4F998190838F5F80933E
:1005100002028093240205C061E0CE0101960E9490
:10052000E40181E090E00F90DF91CF91089508956C
:1005300080E090E008950E94D7101F920F920FB6AE
:100540000F9211242F933F934F935F936F937F9359
:100550008F939F93AF93BF93EF93FF9385E292E0C6
:100560000E94F800FF91EF91BF91AF919F918F9101
:100570007F916F915F914F913F912F910F900FBE9F
:100580000F901F9018951F920F920FB60F92112483
:100590002F938F939F93EF93FF93E0913502F09108
:1005A00036028081E0913B02F0913C0282FD12C054
:1005B000908180913E028F5F8F7320913F0282175E
:1005C00051F0E0913E02F0E0EB5DFD4F958F80939E
:1005D0003E0201C08081FF91EF919F918F912F91F9
:1005E0000F900FBE0F901F901895CF93DF93282F79
:1005F00030E0F901ED53FF4F8491F901E952FF4FCB
:10060000D491F901EB50FF4FC491CC2391F08111AB
:100610000E948C01EC2FF0E0EE0FFF1FE754FF4F1C
:10062000A591B491EC91ED2381E090E021F480E07C
:1006300002C080E090E0DF91CF91089584E00E94B5
:10064000F502892BF1F08091390390913A03892BBF
:1006500081F481E090E090933A0380933903809194
:10066000530390915403019790935603809355033D
:10067000089510923A031092390310925603109283
:10068000550308951F93CF93DF93282F30E0F9018E
:10069000ED53FF4F8491F901E952FF4FD491F901D5
:1006A000EB50FF4FC491CC23C9F0162F81110E944B
:1006B0008C01EC2FF0E0EE0FFF1FE551FF4FA591ED
:1006C000B4918FB7F894111105C09C91ED2FE0956E
:1006D000E92302C0EC91ED2BEC938FBFDF91CF911A
:1006E0001F910895CF93DF9390E0FC01E952FF4FF3
:1006F0002491FC01EB50FF4F8491882361F190E03D
:10070000880F991FFC01E155FF4FC591D491FC0161
:10071000E551FF4FA591B491611109C09FB7F894BD
:100720008881209582238883EC912E230BC0623030
:1007300061F49FB7F8943881822F80958323888352
:10074000EC912E2B2C939FBF06C08FB7F894E881B5
:100750002E2B28838FBFDF91CF9108952FB7F89468
:100760006091B0017091B1018091B2019091B3019B
:100770002FBF08951F920F920FB60F9211242F933F
:100780003F938F939F93AF93BF938091B0019091CC
:10079000B101A091B201B091B3013091AF0123E05A
:1007A000230F2D3720F40196A11DB11D05C026E8A9
:1007B000230F0296A11DB11D2093AF018093B001BC
:1007C0009093B101A093B201B093B3018091B401B1
:1007D0009091B501A091B601B091B7010196A11D0C
:1007E000B11D8093B4019093B501A093B601B0936D
:1007F000B701BF91AF919F918F913F912F910F9032
:100800000FBE0F901F901895EF92FF920F931F93BA
:10081000CF93DF93EC0139818881682F70E04A81A2
:1008200050E0E3EAF0E091E09E1B292F2E0F231702
:1008300028F42491420F511D3196F7CF333020F028
:10084000837011F44F5F5F4F8DE691E0689F9001D8
:10085000699F300D789F300D1124215031096D5F53
:100860007F4F7695679576956795260F371F240FEE
:10087000351FA8E1B0E00E94750F2B817B018C0130
:10088000E20EF11C011D111DA8019701ACE3B0E0BF
:100890000E946A0F2C817B018C01E20EF11C011D6C
:1008A000111DA80197010E946A0F2D81DC01CB0167
:1008B000820F911DA11DB11DBC01CD0160587C4B63
:1008C0008249974CDF91CF911F910F91FF90EF904C
:1008D0000895FC01908190539A3008F090E0818156
:1008E00080532AE0929F800D112408958F929F9249
:1008F000AF92BF92CF92DF92EF92FF920F931F932E
:10090000CF93DF93FC01828193816817790708F008
:100910004CC04A01AA24BB24B82DC32ED42EE52EE8
:10092000FF24AC2D922F8781882361F0889E40019F
:100930001124B92DC89E60011124AD2D289FE0011E
:1009400011249D2FD584C285E084F184DC1208C077
:100950009B01220F331F620F731F6E0D7F1D16C088
:10096000660F771F660F771F6E0D7F1D052F1127EE
:1009700022273327EB01CD0DD11D882329F0089FB5
:1009800090011124232F01C0202F28838285EB01A1
:10099000C80FD11DB8838385EB01C80FD11DA88373
:1009A0008485FB01E80FF11D9083DF91CF911F91AA
:1009B0000F91FF90EF90DF90CF90BF90AF909F90FE
:1009C0008F900895CF92DF92EF92FF920F931F9333
:1009D000CF93DF93CDB7DEB729970FB6F894DEBF7C
:1009E0000FBECDBF8C01DC0118968D919C9119979B
:1009F000892B09F4A3C00E94B501F801C684D784ED
:100A0000E088F188DC01CB018C199D09AE09BF0992
:100A10008C329140A105B10570F3F894D801149679
:100A20008D919C9115979A8389831896ED91FC91ED
:100A300019977F01BFEFEB1AFB0A80818987F801C4
:100A400090810288F389E02DD80154968C919923E6
:100A500009F430C09081982B9887908180958923E4
:100A60008F838F818C8388E08B8358856F81498544
:100A70003B812C8189819A81D701508347FD252FA5
:100A80003A952083262F39F0441F00C00000608370
:100A9000000000C0F2CF38E04D9160830000019764
:100AA00061F7D8015396FC93EE93529749873B83A5
:100AB0002C833AC09081982B9887908180958923C8
:100AC0008F838F818E8388E08D8358856F814985E0
:100AD0003D812E8189819A81D701508347FD252F41
:100AE00000C000C0208300C000C000C000C000C023
:100AF00060830000262F3A9541F0441F000000C09B
:100B000000C000C000C000C0E8CF38E04D9100C078
:100B1000608300C0019709F7D8015396FC93EE93C8
:100B2000529749873D832E839A83898378940E94C4
:100B3000B501F80166877787808B918B29960FB670
:100B4000F894DEBF0FBECDBFDF91CF911F910F9103
:100B5000FF90EF90DF90CF9008951F920F920FB605
:100B60000F9211242F933F934F935F936F937F9333
:100B70008F939F93AF93BF93EF93FF938091B900AF
:100B8000887F803609F49CC068F5883209F45BC020
:100B900090F4803109F454C038F4882309F4F6C085
:100BA000883009F44DC0F6C0883109F44CC0803259
:100BB00009F45DC0EFC0803409F468C048F48033A4
:100BC00009F455C0883309F0E5C08093FE01D8C010
:100BD000803509F44FC0883509F45DC0883409F0C8
:100BE000D9C0D6C0883909F4C7C0A8F4883709F439
:100BF00067C038F4883609F463C0803709F460C0F0
:100C0000C9C0883809F4B8C0803909F45FC0803899
:100C100009F0C0C05BC0803B09F486C038F4803A5C
:100C200009F466C0883A09F47FC0B4C0803C09F476
:100C3000A7C0883C09F4A4C0883B09F48AC0AAC0B4
:100C40008091DB0110C09091FD018091FC0198170B
:100C500070F5E091FD0181E08E0F8093FD01F0E0E1
:100C6000E452FE4F80818093BB0085EC86C0809368
:100C7000FE018EC0E091FD0181E08E0F8093FD01A9
:100C80008091BB00F0E0E452FE4F80839091FD0123
:100C90008091FC016EC0E091FD0181E08E0F809398
:100CA000FD018091BB00F0E0E452FE4F8083809113
:100CB000FF0181116DC081E08093DA0184EA61C097
:100CC00083E0809300021092AE01CFCF8091AE01FD
:100CD000803208F051C0E091AE0181E08E0F809328
:100CE000AE018091BB00F0E0E257FE4F8083BDCFA4
:100CF00085EC8093BC00109200028091AE0180329E
:100D000030F4E091AE01F0E0E257FE4F10826091C6
:100D1000AE0170E0E0918C01F0918D018EE891E0E0
:100D200009951092AE0136C084E0809300021092C3
:100D30008B0110928A01E0918801F0918901099557
:100D400080918A01811105C081E080938A0110920F
:100D50006801E0918B0181E08E0F80938B01F0E0C0
:100D6000E859FE4F80818093BB0090918B01809168
:100D70008A01981708F479CF85E88093BC000AC0EF
:100D800085EC8093BC001092000204C01092FE011A
:100D90000E94DA01FF91EF91BF91AF919F918F91E6
:100DA0007F916F915F914F913F912F910F900FBE67
:100DB0000F901F901895CF92DF92EF92FF920F93B2
:100DC0001F93CF93DF936C017A018B01C0E0D0E0D9
:100DD000CE15DF0589F0D8016D918D01D601ED9119
:100DE000FC910190F081E02DC6010995892B11F449
:100DF0007E0102C02196ECCFC701DF91CF911F91F8
:100E00000F91FF90EF90DF90CF90089520913903DC
:100E100030913A038091550390915603232B89F426
:100E2000019690935603809355032091530330917C
:100E3000540382179307E0F0109256031092550363
:100E400010C001979093560380935503892B81F42A
:100E5000809153039091540301979093560380938C
:100E60005503E0915703F0915803309709F0099426
:100E70000895E5E2F2E0A089B18982E08C93A4852F
:100E8000B5851C92A685B7858FEC8C93108EA489AE
:100E9000B58986E08C93A289B3898C9180618C930B
:100EA000A289B3898C9188608C93A289B3898C9133
:100EB00080688C930288F389E02D80818F7D808308
:100EC00008952091240290912302213208F04AC013
:100ED000809100028111FCCF32E03093000231E0BA
:100EE0003093FF013FEF3093FE011092FD012093FC
:100EF000FC01A3E0B2E04CED51E0FA013E2F341BBF
:100F0000321718F43D913193F9CF1092DB01209103
:100F1000DB01990F922B9093DB019091DA019130D4
:100F200061F41092DA019091DB019093BB009091F3
:100F3000BC0093FDF8CF95EC01C095EE9093BC00FA
:100F4000909100029230E1F39091FE019F3F79F081
:100F50008091FE01803241F08091FE01803331F0BA
:100F600084E005C081E003C082E001C083E010920C
:100F70000202109224021092010208959091000240
:100F80009111FCCF91E0909300029093FF012FEF1D
:100F90002093FE011092FD01260F2093FC019093F7
:100FA000DB019091DB01880F892B8093DB0180911D
:100FB000DA01813061F41092DA018091DB018093D3
:100FC000BB008091BC0083FDF8CF85EC01C085EEAD
:100FD0008093BC00809100028130E1F38091FD019B
:100FE000861710F46091FD01ACEDB1E02AEB31E021
:100FF000F9018E2F821B861718F48D918193F9CFFA
:10100000862F089581E08093010288E68093230271
:1010100010920202109224026FE08AE093E00E9494
:1010200068020E94610761E088E60E94BE07109294
:10103000B9018093B8018AE093E00E941C020895F0
:101040006115710579F0FB0101900020E9F73197F6
:10105000AF01461B570BDC01ED91FC910280F3813F
:10106000E02D099480E090E00895CF93DF93CDB711
:10107000DEB7AC970FB6F894DEBF0FBECDBF789445
:1010800084B5826084BD84B5816084BD85B582608D
:1010900085BD85B5816085BD80916E00816080933E
:1010A0006E001092810080918100826080938100A7
:1010B00080918100816080938100809180008160B7
:1010C000809380008091B10084608093B100809112
:1010D000B00081608093B00080917A00846080933A
:1010E0007A0080917A00826080937A0080917A0001
:1010F000816080937A0080917A00806880937A0082
:101100001092C10010920603109207031092080378
:10111000109209031092C4021092C5021092C602E6
:101120001092C7020E94AE036B017C014B015C016F
:1011300028EB820E2BE0921EA11CB11C0E94AE0374
:101140006C157D058E059F0528F086169706A80666
:10115000B906A0F785E292E090930503809304031B
:101160000E9439070E94AE036093C4027093C502C7
:101170008093C6029093C7026AE271E080910403F3
:10118000909105030E9420080E94AE036B017C0130
:101190004B015C013AE0830E911CA11CB11C0E9422
:1011A000AE036C157D058E059F0528F08616970603
:1011B000A806B906A0F701E00093D8020E943907FB
:1011C0001092B9011092B8011092020210922402FA
:1011D000109200020093FF011092DA0161E082E1B7
:1011E0000E94420361E083E10E9442038091B900C2
:1011F0008E7F8093B9008091B9008D7F8093B90074
:1012000088E48093B80085E48093BC000E940208C3
:1012100090E0880F892F881F990B892B09F4EDC066
:101220006CE371E085E292E00E94200869E371E0DE
:1012300085E292E00E9420084BE050E067E970E010
:10124000CE0101960E943F0FCE010A960E946904CA
:10125000082FE9814E2FEE0F550B660B770BFA0125
:10126000E154F109E331F10538F5EC5CFF4F0C94E2
:10127000A40F12E021C08A81813629F08B818E363D
:1012800021F017E019C011E017C016E015C08B81DE
:10129000823711F018E010C014E00EC08B81823745
:1012A00011F015E009C013E007C019E005C01AE00D
:1012B00003C01BE001C01CE0CE0105960E9469043A
:1012C000C82E48E050E06EE870E0CE0101960E9422
:1012D0003F0FCE0101960E946904B82ECE010496FC
:1012E0000E946904A82ECE0107960E946904982ED8
:1012F000DD24D394D0920102E8E6EE2EE0922302A0
:10130000109202021092240260E08AE093E00E94B0
:101310006802FAE0FF2E892D6F2D0E94840F482F5E
:10132000880F480F440F642F690D8AE093E00E94F4
:1013300068028A2D6F2D0E94840F382F880F380F76
:10134000330F632F6A0D8AE093E00E9468028B2DB1
:101350006F2D0E94840F282F880F280F220F622FD5
:101360006B0D8AE093E00E94680260E08AE093E0FF
:101370000E9468028C2D6F2D0E94840F982F880F79
:10138000980F990F692F6C0D8AE093E00E94680214
:10139000812F6F2D0E94840F982F990F980F990F0E
:1013A000692F610F8AE093E00E946802802F6F2D01
:1013B0000E94840F682F660F680F660F600F8AE027
:1013C00093E00E9468020E9461070E940208182FA1
:1013D000D0920102E09223021092020210922402A3
:1013E0006FE08AE093E00E946802612F6F778AE0E5
:1013F00093E00E9468020E94610762E082E00E941E
:10140000720362E084E00E94720361E085E00E9462
:10141000720361E085E00E9442038091280387FD0A
:1014200008C061E00E94720360E0809128030E947E
:10143000420381E08093230381E090E0909338039E
:10144000809337038FEF90E090935403809353037E
:10145000109256031092550310923A0310923903DA
:1014600082E390E0A0E0B0E080933B0390933C03E4
:10147000A0933D03B0933E037AEF972E81E08093D3
:10148000010298E690932302109202021092240225
:1014900060E08AE093E00E9468020E94610767E0D2
:1014A00088E60E94BE071092B9018093B8018AE0D5
:1014B00093E00E941C028F77982F92959F70182FAF
:1014C000999D100D11248AE093E00E941C029C015A
:1014D000332704E0359527950A95E1F7082F929E6A
:1014E000000D11248AE093E00E941C029C01332726
:1014F00094E0359527959A95E1F7F82E929EF00C99
:1015000011248AE093E00E941C028AE093E00E948A
:101510001C029C01332744E0359527954A95E1F755
:10152000E82E929EE00C11248AE093E00E941C02B7
:101530009C01332754E0359527955A95E1F7D82E2D
:10154000929ED00C11248AE093E00E941C029C0120
:10155000332764E0359527956A95E1F7929E800DD3
:1015600011248AA3DBA2ECA2FDA20EA31FA30E945A
:10157000AE0300913F03109140032091410330914D
:101580004203DC01CB01801B910BA20BB30B00913A
:101590003B0310913C0320913D0330913E0308171B
:1015A00019072A073B0708F075C20E94AE03609333
:1015B0003F037093400380934103909342038091D3
:1015C0003703909138038330910509F4DCC054F45B
:1015D0008130910509F463C0029709F05BC200E015
:1015E00010E0C0C08430910509F4DEC0059709F011
:1015F00051C280914303482F2091440350914503E9
:10160000E0915303F0915403E0905503F09056039A
:101610006F01CE18DF0890914B03B92E30914C0327
:1016200080914D038E9DB0018F9D700D11245C9DA6
:10163000C0015D9D900D1124860F971FBF010E9470
:10164000900F162F3E9DD0013F9DB00D11242C9D73
:10165000C0012D9D900D11248A0F9B1FBF010E9478
:10166000900F862F90E0A0E0B0E0BA2FA92F982F1E
:1016700088272C013D01612ABE9CB001BF9C700DE2
:1016800011244C9DC0014D9D900D1124860F971F74
:10169000BF010E94900F462AE12CF12CDFC1E12C02
:1016A000F12C00E010E060912403709125030617EF
:1016B000170708F0E9C1C7010E94900F2091550358
:1016C000620F6095653568F4262F220F620F862F12
:1016D0008095462F50E060E070E09A01AB01482B06
:1016E0001DC06A3A58F46555862F880F860F282F3B
:1016F0002095422F50E060E070E00DC06A5A262F1E
:10170000220F620F862F8095462F50E060E070E038
:10171000BA01552744279A01AB01382BB80182E260
:1017200093E00E9476040F5F1F4FF394BCCF80912B
:10173000550390915603800F911F63E070E00E9463
:10174000900F892BB9F420914303309144034091C9
:10175000450350914603B80182E293E00E9476046B
:101760000F5F1F4F809124039091250308171907DD
:10177000F0F28AC120914B0330914C0340914D030C
:1017800050914E03E8CF20914303309144034091A0
:10179000450350914603609155037091560382E2D0
:1017A00093E00E94760470C11CA61BA61AA619A677
:1017B000612C712C80912403909125036816790681
:1017C00008F062C1209155033091560362167306EA
:1017D00049F08091530390915403821B930B681638
:1017E000790649F420914303309144034091450325
:1017F0005091460320C120912F03A0902C0300910B
:101800002A0310912B03C0902903822F90E080902F
:101810002D0340902E0348A62A1164C04BA45CA45B
:10182000040D151DCC2009F443C0D12CE12CF12C62
:10183000F801E80FF91F608170E0762F6627072E08
:10184000000C880B990BA70196010E94480F2901F3
:1018500033242224F801E80DF11D608170E0762F19
:101860006627072E000C880B990BA70196010E9492
:10187000480FB42FA32F922F8827282A392A4A2AC3
:101880005B2AF80128A5E20FF11D608170E0762F38
:101890006627072E000C880B990BA70196010E9462
:1018A000480F72016101C22AD32AE42AF52A99C09D
:1018B000F801E80FF91F8081F801E80DF11D208083
:1018C000422D50E060E070E0762F652F542F4427C2
:1018D000682BF80148A4E40DF11D80816A017B01A9
:1018E000C82A7FC049A45AA4040D151DB12CCC20D0
:1018F00009F45AC0D12CE12CF12CF801E80FF91FA2
:10190000608170E0762F6627072E000C880B990BFC
:10191000A70196010E94480F522E4424332422240A
:10192000F801EA0DFB1D608170E0762F6627072E17
:10193000000C880B990BA70196010E94480FD90152
:1019400099278827282A392A4A2A5B2AF80128A5B4
:10195000E20FF11D608170E0762F6627072E000CE4
:10196000880B990BA70196010E94480F222A332A5F
:10197000442A552AF801E80DF11D608170E0762FA8
:101980006627072E000C880B990BA70196010E9471
:10199000480FB42FA32F922F882772016101C82A04
:1019A000D92AEA2AFB2A1DC0F801E80FF91F808115
:1019B000F801EA0DFB1D2080422D50E060E070E050
:1019C000BA0155274427782BF80148A4E40DF11DEE
:1019D0008081482BF801E80DF11D80816A017B01AF
:1019E000D82A2E2D30E035952795C901330FAA0B43
:1019F000BB0BBC01552744278D2D90E0959587950D
:101A0000092E000CAA0BBB0BBA2FA92F982F8827E1
:101A1000842B952BA62BB72B2C2C312C9101359593
:101A20002795A901330F660B770B9A01AB01282B81
:101A3000392B4A2B5B2BB30182E293E00E947604A0
:101A40002FEF621A720A89A59AA504969AA789A708
:101A5000ABA5BCA51396BCA7ABA7ACCE80912403C5
:101A600090912503E816F90658F4A3019201B701F5
:101A700082E293E00E9476042FEFE21AF20AEECFA0
:101A800082E293E00E94E20482E293E00E94E20498
:101A90000E940607CE0182960E9404040091640110
:101AA00010916501209166013091670160177107FF
:101AB0008207930759F182E00E94F502892B09F011
:101AC0004AC083E090E090933803809337031092EC
:101AD000430310924403109245038FEF8093460313
:101AE00010924703109248031092490310924A0340
:101AF00085E0482E512C612C712C40923B03509272
:101B00003C0360923D0370923E03AFC010926101AE
:101B100010926001109263011092620110923803DA
:101B20001092370300E010E020911E0330911F0354
:101B30004091200350912103B80182E293E00E947A
:101B4000760482E293E00E94E2040F5F1F4F0C33A1
:101B5000110551F7B0CF84E00E94F502892B09F0FE
:101B600086C0C0906201D09063012FEFC21AD20AE2
:101B7000D0926301C092620132E0C316D10471F0C9
:101B80002CF491E0C916D10449F025C0A3E0CA168F
:101B9000D10421F0B4E0CB16D104E9F48AA1898301
:101BA0008BA18A838CA18B838DA18C838EA18D8345
:101BB0008FA18E83CE0101960E940404DC01CB012B
:101BC0000596A11DB11D8093640190936501A093BA
:101BD0006601B09367010D2C000CEE08FF08F7FEBC
:101BE00028C0E0912502F09126020190F081E02DBD
:101BF0006DE285E292E0099522273327A9012C198D
:101C00003D094E095F0919A28E010F5D1F4FCA01E0
:101C1000B9012AE030E040E050E00E94480F605DEA
:101C2000F80162938F01211531054105510579F7BE
:101C300017C0A701960119A28E010F5D1F4FCA019F
:101C4000B9012AE030E040E050E00E94480F605DBA
:101C5000D8016E938D01211531054105510579F7A4
:101C6000B80185E292E00E94200860E001C061E0D6
:101C700085E00E9442030E94820100CC80912A03E9
:101C800090912B03009711F00E943F108091280340
:101C900087FD03C060E00C9472030895109228023F
:101CA0001092270288EE93E0A0E0B0E08093290232
:101CB00090932A02A0932B02B0932C022AE031E0E9
:101CC000309326022093250225EC30E03093320237
:101CD0002093310224EC30E030933402209333021D
:101CE00020EC30E0309336022093350221EC30E0D6
:101CF000309338022093370222EC30E030933A02DE
:101D00002093390226EC30E030933C0220933B02D2
:101D100010923E0210923F02109240021092410235
:101D20001092C8021092C9021092CA021092CB02FD
:101D30001092CC021092CD021092CE021092CF02DD
:101D40001092D0021092D1021092D2021092D302BD
:101D50001092D4021092D5021092D6021092D7029D
:101D600010920D0310920C0380930E0390930F03B7
:101D7000A0931003B09311038CE191E090930B03B7
:101D800080930A03109223031092290310923003C8
:101D900010923103109232031092330383E0809348
:101DA0002F0381E080932C0310922D0392E09093F7
:101DB0002E038093220380EF90E09093270380937B
:101DC00026030E94AA0F90932B0380932A03009767
:101DD00061F020EFFC0111922A95E9F78CE390E085
:101DE000909325038093240308C010922703109238
:101DF0002603109225031092240383E08093280386
:101E000080912303882341F061E083E00E94720304
:101E100060E083E00E944203E8EFF0E0E491F0E04C
:101E2000EE0FFF1FE551FF4F85919491909335037D
:101E300080933403EAEDF0E0E491E09336038EE121
:101E400093E0909358038093570310921E031092CF
:101E50001F0310922003109221038FEF809316032B
:101E600080931703809318038093190310921A0329
:101E700010921B0310921C0310921D030895FB0186
:101E8000DC0102C005900D9241505040D8F70895F2
:101E9000A1E21A2EAA1BBB1BFD010DC0AA1FBB1F6E
:101EA000EE1FFF1FA217B307E407F50720F0A21BE0
:101EB000B30BE40BF50B661F771F881F991F1A944D
:101EC00069F760957095809590959B01AC01BD0177
:101ED000CF0108950E94750FA59F900DB49F900D9E
:101EE000A49F800D911D11240895A29FB001B39F5E
:101EF000C001A39F700D811D1124911DB29F700D13
:101F0000811D1124911D0895991B79E004C0991F2A
:101F1000961708F0961B881F7A95C9F78095089543
:101F2000AA1BBB1B51E107C0AA1FBB1FA617B707FF
:101F300010F0A61BB70B881F991F5A95A9F780951B
:101F40009095BC01CD010895EE0FFF1F0590F4910F
:101F5000E02D0994CF93DF938230910510F482E055
:101F600090E0E0915B03F0915C0320E030E0C0E0A2
:101F7000D0E0309711F14081518148175907C0F0E6
:101F80004817590761F482819381209719F09B8348
:101F90008A832BC090935C0380935B0326C021153A
:101FA000310519F04217530718F49A01BE01DF01F9
:101FB000EF010280F381E02DDCCF2115310509F11D
:101FC000281B390B2430310590F412968D919C9189
:101FD00013976115710521F0FB019383828304C07F
:101FE00090935C0380935B03FD01329644C0FD0136
:101FF000E20FF31F81939193225031092D933C936B
:102000003AC02091590330915A03232B41F4209177
:1020100002013091030130935A0320935903209118
:102020000001309101012115310541F42DB73EB772
:102030004091040150910501241B350BE091590397
:10204000F0915A03E217F307A0F42E1B3F0B281759
:10205000390778F0AC014E5F5F4F2417350748F021
:102060004E0F5F1F50935A034093590381939193EE
:1020700002C0E0E0F0E0CF01DF91CF9108950F932F
:102080001F93CF93DF93009709F48CC0FC01329724
:102090001382128200915B0310915C0301151105FC
:1020A00081F420813181820F931F20915903309157
:1020B0005A032817390779F5F0935A03E093590327
:1020C00071C0D80140E050E0AE17BF0750F412963F
:1020D0002D913C911397AD012115310509F1D901DD
:1020E000F3CF9D01DA013383228360817181860FF2
:1020F000971F8217930769F4EC0128813981260F15
:10210000371F2E5F3F4F318320838A819B819383CA
:102110008283452B29F4F0935C03E0935B0342C078
:102120001396FC93EE931297ED01499159919E01FC
:10213000240F351FE217F30771F480819181840F1A
:10214000951F029611969C938E938281938113968C
:102150009C938E931297E0E0F0E0D80112968D9157
:102160009C911397009719F0F8018C01F6CF8D918F
:102170009C9198012E5F3F4F820F931F209159032E
:1021800030915A032817390769F4309729F41092CF
:102190005C0310925B0302C01382128210935A03F5
:1021A00000935903DF91CF911F910F91089581E022
:1021B00090E0F8940C94DC1010E0C6E8D0E004C085
:1021C000FE010E94A40F2196C738D107C9F7F894E1
:0221D000FFCF3F
:1021D20000005D038000000000001901DB06B10071
:1021E2006001E200C000D400000000006802380272
:1021F20098020C0230021C020D02564D4450565FEA
:10220200317C315F564D4450560D0A0052544320E2
:102212006C6F737420706F7765722C206C657473A9
:1022220020736574207468652074696D65210000EF
:00000001FF
