:100000000C946E000C9496000C9496000C94960040
:100010000C9496000C9496000C9496000C94960008
:100020000C9496000C9496000C9496000C949600F8
:100030000C9496000C9496000C9496000C949600E8
:100040000C9418040C9496000C9496000C94960052
:100050000C9496000C9496000C9496000C949600C8
:100060000C9462040C9496009A069E06A306A806B9
:10007000AD06B406B906BE06C506EA0615070000B9
:100080000000240027002A000000000023002600B2
:10009000290000000008000201000003040700001E
:1000A000000000000000010204081020408001024E
:1000B00004081020010204081020000000002500A0
:1000C00028002B00040404040404040402020202B5
:1000D00002020303030303039005690711241FBEF3
:1000E000CFEFD8E0DEBFCDBF11E0A0E0B1E0ECEC97
:1000F000F1E102C005900D92AA31B107D9F721E0D4
:10010000AAE1B1E001C01D92A93BB207E1F710E0FE
:10011000CDE6D0E004C02197FE010E94A107CC36B5
:10012000D107C9F70E940A060C94D9080C94000064
:100130008F929F92AF92BF92CF92DF92EF92FF92F7
:100140002091A2013091A3018217930708F052C0B9
:100150004B01AA24BB24E82DC52ED62EE72EFF2462
:10016000FC2D342F2091A701222361F0829E4001B3
:100170001124E92DC29E60011124FD2D429FD00162
:1001800011243B2FF090AD01E090AA01A091A801AD
:10019000B091A901FE1008C0AC01440F551F840F97
:1001A000951F8A0F9B1F14C0880F991F880F991FD6
:1001B0008A0F9B1F472F552766277727DC01AF0D36
:1001C000B11D222321F0429FA0011124452F4C9301
:1001D0002091AA01DC01A20FB11DEC932091AB018B
:1001E000DC01A20FB11DFC932091AC01FC01E20FD8
:1001F000F11D3083FF90EF90DF90CF90BF90AF90D4
:100200009F908F900895CF92DF92EF92FF920F937D
:100210001F93CF93DF936C017A018B01C0E0D0E094
:10022000CE15DF0589F0D8016D918D01D601ED91D4
:10023000FC910190F081E02DC6010995892B11F404
:100240007E0102C02196ECCFC701DF91CF911F91B3
:100250000F91FF90EF90DF90CF900895833081F061
:1002600028F4813099F08230A1F008958730A9F008
:100270008830B9F08430D1F4809180008F7D03C044
:10028000809180008F7780938000089584B58F7768
:1002900002C084B58F7D84BD08958091B0008F77B2
:1002A00003C08091B0008F7D8093B0000895CF93FC
:1002B000DF93282F30E0F901EE56FF4F8491F901CA
:1002C000EA55FF4FD491F901EC53FF4FC491CC2371
:1002D00099F081110E942E01EC2FF0E0EE0FFF1F2C
:1002E000E654FF4FA591B4918FB7F8949C91ED2FF0
:1002F000E095E923EC938FBFDF91CF910895CF93E1
:10030000DF93E6E9F0E08491EAEAF0E0D491E8ECEA
:10031000F0E0C491CC2391F081110E942E01EC2FCA
:10032000F0E0EE0FFF1FE857FF4FA591B491EC915D
:10033000ED2381E090E021F480E002C080E090E0D5
:10034000DF91CF910895CF93DF9390E0FC01EA55C0
:10035000FF4F2491FC01EC53FF4F8491882361F1FE
:1003600090E0880F991FFC01E258FF4FC591D4918E
:10037000FC01E654FF4FA591B491611109C09FB7EC
:10038000F8948881209582238883EC912E230BC0DA
:10039000623061F49FB7F8943881822F809583236F
:1003A0008883EC912E2B2C939FBF06C08FB7F894B7
:1003B000E8812E2B28838FBFDF91CF9108953FB71F
:1003C000F89480918E0190918F01A0919001B0914D
:1003D000910126B5A89B05C02F3F19F00196A11DDC
:1003E000B11D3FBFBA2FA92F982F8827820F911DCB
:1003F000A11DB11DBC01CD0142E0660F771F881F12
:10040000991F4A95D1F708950F931F93CF93DF93C8
:10041000CDB7DEB729970FB6F894DEBF0FBECDBFBC
:100420008091A8019091A901892B09F4A2C00E9492
:10043000DF010091AE011091AF012091B001309128
:10044000B101DC01CB01801B910BA20BB30B8C32F1
:100450009140A105B10558F3F8948091A4019091C1
:10046000A5019A838983E091A801F091A901DF0198
:100470001196808189879091A001E091B201F0915D
:10048000B3018091B401992309F42EC09081982B77
:1004900098879081809589238F838F818C8388E0D2
:1004A0008B8358856F8149853B812C8189819A8115
:1004B000508347FD252F3A952083262F39F0441F7E
:1004C00000C000006083000000C0F2CF38E04D9112
:1004D00060830000019761F7F093B301E093B201EC
:1004E00049873B832C8338C09081982B98879081D3
:1004F000809589238F838F818E8388E08D835885B3
:100500006F8149853D812E8189819A81508347FD84
:10051000252F00C000C0208300C000C000C000C064
:1005200000C060830000262F3A9541F0441F000070
:1005300000C000C000C000C000C0E8CF38E04D914E
:1005400000C0608300C0019709F7F093B301E09306
:10055000B20149873D832E839A83898378940E94D0
:10056000DF016093AE017093AF018093B00190936F
:10057000B10129960FB6F894DEBF0FBECDBFDF9153
:10058000CF911F910F9108958F929F92AF92BF923A
:10059000CF92DF92EF92FF926B017C010E94DF010C
:1005A0004B015C01C114D104E104F104F1F00E949B
:1005B000DF01DC01CB0188199909AA09BB09883E32
:1005C0009340A105B10570F321E0C21AD108E108FA
:1005D000F10888EE880E83E0981EA11CB11CC1149E
:1005E000D104E104F10419F7DDCFFF90EF90DF9023
:1005F000CF90BF90AF909F908F900895CF92DF9251
:10060000EF92FF92CF93DF936B017C01C0E0D0E0CB
:100610008091A2019091A301C817D90778F4B7017E
:10062000A601CE010E9498000E94040262E370E0DD
:1006300080E090E00E94C4022196EACFDF91CF9142
:10064000FF90EF90DF90CF9008958F929F92AF929E
:10065000BF92EF92FF920F931F93CF93DF934B01C3
:100660005C018AE0E82EF12CC0E0D0E000E010E070
:100670008091A2019091A3010817190750F4B501C8
:10068000A401C8018C0F9D1F0E9498000D5F1F4F91
:10069000EFCF0E94040262E370E080E090E00E94ED
:1006A000C40200E010E08091A2019091A30108171C
:1006B000190758F440E050E0BA01C8018C0F9D1FA3
:1006C0000E9498000D5F1F4FEECF2196C330D105D9
:1006D00069F681E0E81AF10839F6DF91CF911F91B0
:1006E0000F91FF90EF90BF90AF909F908F900895E3
:1006F00085ED8093BC008091BC0084FDFCCF1092FE
:100700006301089540913D01262F30E0240F311DF3
:1007100021323105DCF4209163012430C9F4FC015D
:1007200080E090E0861758F430913D012191DC0182
:10073000A55EBE4FA30FB11D2C930196F3CF809100
:100740003D01680F60933D0180E0089581E00895C8
:1007500082E0089508958FEF9FEF08958FEF9FEF48
:10076000089580911A0190E09195819591090895DD
:10077000CF93DF9300D0CDB7DEB7CB01642F498391
:100780005A830E9482034981842F5A81952F0F90AA
:100790000F90DF91CF910895CF93DF931F92CDB744
:1007A000DEB7698361E0CE0101960E94820381E099
:1007B00090E00F90DF91CF910895089580E090E050
:1007C00008950F931F938095853560F4682F660F09
:1007D000860F282F209590E0A0E0B0E0BC01CD016D
:1007E000822B21C08A3A80F48555982F990F980F53
:1007F000692F6095462F50E060E070E08A019B0110
:10080000192BC901B8010FC08A5A682F660F860FCD
:10081000282F209590E0A0E0B0E0DC019927882700
:10082000BC01CD01722B1F910F9108950E94D40835
:100830001F920F920FB60F9211242F933F938F9315
:100840009F93AF93BF9380918A0190918B01A09168
:100850008C01B0918D013091890123E0230F2D3758
:1008600020F40196A11DB11D05C026E8230F0296B4
:10087000A11DB11D2093890180938A0190938B0162
:10088000A0938C01B0938D0180918E0190918F0186
:10089000A0919001B09191010196A11DB11D80938D
:1008A0008E0190938F01A0939001B0939101BF911D
:1008B000AF919F918F913F912F910F900FBE0F900D
:1008C0001F9018951F920F920FB60F9211242F931D
:1008D0003F934F935F936F937F938F939F93AF93C8
:1008E000BF93EF93FF938091B900887F803609F41E
:1008F0009CC068F5883209F45BC090F4803109F43B
:1009000054C038F4882309F4F6C0883009F44DC087
:10091000F6C0883109F44CC0803209F45DC0EFC0E4
:10092000803409F468C048F4803309F455C0883332
:1009300009F0E5C080936201D8C0803509F44FC04A
:10094000883509F45DC0883409F0D9C0D6C088392B
:1009500009F4C7C0A8F4883709F467C038F48836AA
:1009600009F463C0803709F460C0C9C0883809F44D
:10097000B8C0803909F45FC0803809F0C0C05BC0DE
:10098000803B09F486C038F4803A09F466C0883A9E
:1009900009F47FC0B4C0803C09F4A7C0883C09F4C6
:1009A000A4C0883B09F48AC0AAC08091880110C005
:1009B0009091870180918601981770F5E0918701E9
:1009C00081E08E0F80938701F0E0EA59FE4F80812D
:1009D0008093BB0085EC86C0809362018EC0E0915D
:1009E000870181E08E0F809387018091BB00F0E04A
:1009F000EA59FE4F808390918701809186016EC0F5
:100A0000E091870181E08E0F809387018091BB0088
:100A1000F0E0EA59FE4F80838091650181116DC03D
:100A200081E08093640184EA61C083E08093630184
:100A300010926101CFCF80916101803208F051C0E6
:100A4000E091610181E08E0F809361018091BB0094
:100A5000F0E0EF5BFE4F8083BDCF85EC8093BC0060
:100A60001092630180916101803230F4E091610164
:100A7000F0E0EF5BFE4F10826091610170E0E09169
:100A80003F01F091400181E491E0099510926101EC
:100A900036C084E08093630110923E0110923D01C4
:100AA000E0913B01F0913C01099580913D0181115C
:100AB00005C081E080933D0110921B01E0913E0151
:100AC00081E08E0F80933E01F0E0E55EFE4F808175
:100AD0008093BB0090913E0180913D01981708F4EE
:100AE00079CF85E88093BC000AC085EC8093BC0078
:100AF0001092630104C0109262010E947803FF917A
:100B0000EF91BF91AF919F918F917F916F915F9185
:100B10004F913F912F910F900FBE0F901F901895FE
:100B2000CF93DF93109297011092960188EE93E095
:100B3000A0E0B0E08093980190939901A0939A016E
:100B4000B0939B018BE091E0909395018093940189
:100B50001092A1011092A7011092AE011092AF0164
:100B60001092B0011092B10183E08093AD01109218
:100B7000AA0181E08093AB0192E09093AC01809355
:100B8000A001C0EFD1E0D093A501C093A40180EFF4
:100B900091E00E94A7079093A9018093A801009774
:100BA00069F0FC019E01119221503040E1F78CE781
:100BB00090E09093A3018093A20108C01092A50138
:100BC0001092A4011092A3011092A20183E08093DD
:100BD000A6018091A101882339F061E083E00E94A1
:100BE000A30183E00E945701E7ECF0E0E491F0E01C
:100BF000EE0FFF1FE654FF4F859194919093B30140
:100C00008093B201E9EAF0E0E491E093B401DF916E
:100C1000CF910895789484B5826084BD84B5816055
:100C200084BD85B5826085BD85B5816085BD8091B7
:100C30006E00816080936E0010928100809181002F
:100C40008260809381008091810081608093810027
:100C5000809180008160809380008091B1008460E9
:100C60008093B1008091B00081608093B00080914A
:100C70007A00846080937A0080917A008260809309
:100C80007A0080917A00816080937A0080917A0066
:100C9000806880937A001092C10062E084E00E9434
:100CA000A3018091A60187FD07C061E00E94A30116
:100CB0008091A6010E94570181E08093A1010E94CA
:100CC0000402EE24EA94F12C90E0C92E90E0D92E93
:100CD0000E947F01892B09F0F0C0809100018823D8
:100CE00009F4EDC064E170E080E090E00E94C4028D
:100CF0000E947F01892B09F0E0C0809192019091C0
:100D0000930101968A3091052CF49093930180937E
:100D1000920104C01092930110929201E09192010D
:100D2000F0919301EB30F10508F0C9C0EC5CFF4F86
:100D30000C94A10760E070E0CB0113C060E070E0AC
:100D40008FEF90E00EC060E07FEF80E090E009C0A0
:100D50006FEF70E080E090E004C060E070E080E061
:100D60009FEF0E94FE02ABC06FE77FE78FE790E046
:100D700009C060E070E08FE790E004C06FE770E0CA
:100D800080E090E00E9425039AC000E010E0C0E0FF
:100D9000D0E08091A2019091A301C817D90758F41F
:100DA0008C2F800F0E94E103AB01BC01CE010E9499
:100DB00098002196EECF0E94040264E170E080E08A
:100DC00090E00E94C4020F5F1F4F011581E01807D9
:100DD000F1F675C000E010E0A12CB12CC0E0D0E02D
:100DE0006091A2017091A301C617D70778F4C501DD
:100DF0000E947907862F800F0E94E103AB01BC019E
:100E0000CE010E9498002196B394EACF0E9404027A
:100E100064E170E080E090E00E94C4020F5F1F4F29
:100E2000011585E01807C1F64AC0A12CB12CC0E01D
:100E3000D0E000E010E08091A2019091A30108179A
:100E4000190790F4C8018A0D9B1DB7010E948D07F8
:100E50000E94E103AB01BC01C8018C0F9D1F0E94E1
:100E600098000D5F1F4FE7CF0E94040262E370E01D
:100E700080E090E00E94C40200E010E08091A201B6
:100E80009091A3010817190758F440E050E0BA0107
:100E9000C8018C0F9D1F0E9498000D5F1F4FEECF61
:100EA0002196C330D10529F68FEFA81AB80AA114EC
:100EB00081E0B80609F0BBCF02C081E001C080E04C
:100EC00080930001C114D10409F402CF0E940000F4
:100ED000FFCE8091A8019091A901009711F00E9486
:100EE0003C088091A60187FD03C060E00C94A3013B
:100EF0000895AA1BBB1B51E107C0AA1FBB1FA61761
:100F0000B70710F0A61BB70B881F991F5A95A9F7B2
:100F100080959095BC01CD01089597FB072E16F49E
:100F2000009407D077FD09D00E94790707FC05D00F
:100F30003EF4909581959F4F0895709561957F4FF0
:100F40000895EE0FFF1F0590F491E02D0994CF93C3
:100F5000DF938230910510F482E090E0E091B701D8
:100F6000F091B80120E030E0C0E0D0E0309711F11E
:100F70004081518148175907C0F04817590761F45B
:100F800082819381209719F09B838A832BC0909351
:100F9000B8018093B70126C02115310519F0421719
:100FA000530718F49A01BE01DF01EF010280F381BB
:100FB000E02DDCCF2115310509F1281B390B243038
:100FC000310590F412968D919C91139761157105DE
:100FD00021F0FB019383828304C09093B801809336
:100FE000B701FD01329644C0FD01E20FF31F81936A
:100FF0009193225031092D933C933AC02091B50131
:101000003091B601232B41F420910301309104016A
:101010003093B6012093B501209101013091020176
:101020002115310541F42DB73EB74091050150918E
:101030000601241B350BE091B501F091B601E217D2
:10104000F307A0F42E1B3F0B2817390778F0AC01EB
:101050004E5F5F4F2417350748F04E0F5F1F5093C8
:10106000B6014093B5018193919302C0E0E0F0E0B6
:10107000CF01DF91CF9108950F931F93CF93DF930B
:10108000009709F48CC0FC01329713821282009100
:10109000B7011091B8010115110581F4208131814A
:1010A000820F931F2091B5013091B601281739079F
:1010B00079F5F093B601E093B50171C0D80140E035
:1010C00050E0AE17BF0750F412962D913C91139744
:1010D000AD012115310509F1D901F3CF9D01DA01E7
:1010E0003383228360817181860F971F8217930754
:1010F00069F4EC0128813981260F371F2E5F3F4F9D
:10110000318320838A819B8193838283452B29F4B9
:10111000F093B801E093B70142C01396FC93EE93AD
:101120001297ED01499159919E01240F351FE21745
:10113000F30771F480819181840F951F02961196B7
:101140009C938E938281938113969C938E93129796
:10115000E0E0F0E0D80112968D919C9113970097F2
:1011600019F0F8018C01F6CF8D919C9198012E5FBA
:101170003F4F820F931F2091B5013091B601281780
:10118000390769F4309729F41092B8011092B70129
:1011900002C0138212821093B6010093B501DF9151
:1011A000CF911F910F91089581E090E0F8940C94F5
:1011B000D90810E0CDE6D0E004C0FE010E94A107EE
:0C11C0002196CE36D107C9F7F894FFCF76
:1011CC00010000B901800000000000CC03B803DE70
:0A11DC0003AA03B103AE03AB030046
:00000001FF
